:100000000C9434000C943E000C943E000C943E0082
:100010000C943E000C943E000C943E000C943E0068
:100020000C943E000C943E000C943E000C943E0058
:100030000C943E000C943E000C943E000C943E0048
:100040000C943E000C943E000C943E000C943E0038
:100050000C943E000C943E000C943E000C943E0028
:100060000C943E000C943E0011241FBECFEFD8E04C
:10007000DEBFCDBF0E9440000C9471000C940000C4
:100080008AB1837E8AB984B1816284B999B189B118
:10009000887029B192FD1FC0882309F124FD1FC07B
:1000A00028982D9A2FEF89E698E1215080409040C2
:1000B000E1F700C000002D982FEF89E698E121506C
:1000C00080409040E1F700C0000099B189B188708C
:1000D00029B192FFE1CF882319F324FFE1CF289AB9
:0600E000E0CFF894FFCF11
:00000001FF
