:100000000C9434000C9446000C9446000C9446006A
:100010000C9446000C9446000C9446000C94460048
:100020000C9446000C9446000C9446000C94460038
:100030000C9446000C9446000C9446000C94460028
:100040000C9446000C9446000C9446000C94460018
:100050000C9446000C9446000C9446000C94460008
:100060000C9446000C94460011241FBECFEFD8E03C
:10007000DEBFCDBF21E0A0E0B1E001C01D92A03104
:10008000B207E1F70E946A000C9442010C94000050
:10009000EBB1E37CEBB9EBB1880F991F8295929598
:1000A000907F9827807F98278E2B62957295707F1E
:1000B0007627607F7627682B440F551F440F551F06
:1000C000440F551F462B220F331F220F331F242BA3
:1000D0002BB908958AB18C638AB914B841E050E015
:1000E00027C0662309F4B4C02111C8C03111C6C0AD
:1000F000509303014093020194E010920701109283
:100100000601109209011092080170E0662309F4BB
:1001100079C080E221E030E03093010120930001BA
:100120002BB1237C2BB92BB1872B822B982B9BB91E
:1001300083B18170282F30E030930B0120930A01A6
:1001400093B161E070E0292F227091FD02C060E060
:1001500070E070930F0160930E0193B161E070E065
:10016000392F347092FD02C060E070E07093050199
:100170006093040193B1E1E0F0E0692F687093FDB2
:1001800002C0E0E0F0E0F0930D01E0930C01882361
:1001900009F4A7CF1092030110920201211152C05D
:1001A00090E0332329F0811161C0222309F459C062
:1001B000E1E0F0E0662311F0E0E0F0E0DF01AA0FFB
:1001C000BB1FAA0FBB1FAA0FBB1F9A2BF0930701DF
:1001D000E0930601882389F1222321F1311116C011
:1001E000E1E0F0E06111E0E07E2F7295707FE09336
:1001F0000801F093090181110EC0211103C03323BE
:1002000009F484CF80E020E030E086CF109209012D
:100210001092080170E02223A9F3332399F36111AE
:10022000F1CF77CF3111DCCF109209011092080184
:1002300080E070E020E030E06FCF2111F3CF31118A
:10024000CFCF5FCF109207011092060190E0C4CF8C
:1002500094E0E1E0F0E0F0930301E093020121116A
:10026000A0CF1092070110920601E9CF222309F4D2
:100270009FCF1092070110920601AECF90E0E0E010
:08028000F0E0E9CFF894FFCF94
:00000001FF
