:100000000C9434000C943E000C943E000C943E0082
:100010000C943E000C943E000C943E000C943E0068
:100020000C943E000C943E000C943E000C943E0058
:100030000C943E000C943E000C943E000C943E0048
:100040000C943E000C943E000C943E000C943E0038
:100050000C943E000C943E000C943E000C943E0028
:100060000C943E000C943E0011241FBECFEFD8E04C
:10007000DEBFCDBF0E9440000C9457000C940000DE
:100080008AB1837E8AB9209A99B189B188704C99D6
:100090000AC0882311F092FF08C0289A99B189B14B
:1000A00088704C9BF6CF8111F6CF2898EDCFF8944D
:0200B000FFCF80
:00000001FF
