:100000000C9434000C943E000C943E000C943E0082
:100010000C943E000C943E000C943E000C943E0068
:100020000C943E000C943E000C943E000C943E0058
:100030000C943E000C943E000C943E000C943E0048
:100040000C943E000C943E000C943E000C943E0038
:100050000C943E000C943E000C943E000C943E0028
:100060000C943E000C943E0011241FBECFEFD8E04C
:10007000DEBFCDBF0E9440000C946D000C940000C8
:100080008AB1837E8AB98AB1806C8AB984B18F6162
:1000900084B913C0882311F024FF17C05E9A5F98BB
:1000A000289885B18E6185B92FEF83EC99E02150B6
:1000B00080409040E1F700C0000099B189B188709C
:1000C00029B192FFE7CF8111E7CF8BB18F738BB945
:0E00D00085B1807F85B92C9AE7CFF894FFCFD9
:00000001FF
