:100000000C9434000C943E000C943E000C943E0082
:100010000C943E000C943E000C943E000C943E0068
:100020000C943E000C943E000C943E000C943E0058
:100030000C943E000C943E000C943E000C943E0048
:100040000C943E000C943E000C943E000C943E0038
:100050000C943E000C943E000C943E000C943E0028
:100060000C943E000C943E0011241FBECFEFD8E04C
:10007000DEBFCDBF0E9440000C94A4000C94000091
:100080008AB1837E8AB984B1876384B929B199B171
:10009000987089B18470622F607124FD48C09923E3
:1000A00009F44CC031E020E0811101C030E0432F61
:1000B000522FE1E070E0811138C02E2F372F6623D8
:1000C00009F1911121C02C98811121C0289A232B6C
:1000D00009F1299A452B09F12A9A2D9A2FEF89E6E1
:1000E00098E1215080409040E1F700C000002D9839
:1000F0002FEF89E698E1215080409040E1F700C061
:100100000000C4CF8111DFCF2C9A8823F9F2289800
:10011000232BF9F62998452BF9F62A98DECF41E0F2
:1001200050E0E1E070E08111C8CFE0E0C6CF992354
:10013000B1F3882331F040E050E0BBCF40E050E025
:0C014000F0CF41E050E0B5CFF894FFCFC5
:00000001FF
