:100000000C9434000C943E000C943E000C943E0082
:100010000C943E000C943E000C943E000C943E0068
:100020000C943E000C943E000C943E000C943E0058
:100030000C943E000C943E000C943E000C943E0048
:100040000C943E000C943E000C943E000C943E0038
:100050000C943E000C943E000C943E000C943E0028
:100060000C943E000C943E0011241FBECFEFD8E04C
:10007000DEBFCDBF0E9440000C9465000C940000D0
:100080008AB1837E8AB984B18F6084B921E099B145
:1000900089B188704C9913C08823A9F092FD13C0D0
:1000A00015B83FEF83EC99E0315080409040E1F784
:1000B00000C0000099B189B188704C9BEDCF8823B6
:0E00C00079F392FFEDCF25B9ECCFF894FFCF86
:00000001FF
